:100000000C942A000C9447000C9447000C94470071
:100010000C9447000C9447000C9447000C94470044
:100020000C9447000C9447000C9447000C94470034
:100030000C9447000C9447000C9447000C94470024
:100040000C94FA000C9447000C9447000C94470061
:100050000C94470011241FBECFE5D8E0DEBFCDBF12
:1000600010E0A0E6B0E0ECE8F3E002C005900D92ED
:10007000A237B107D9F720E0A2E7B0E001C01D9296
:10008000A038B207E1F70E94EE000C94C4010C9472
:10009000000087B1816487B9379A339A86B183604B
:1000A00086B9089597B18770982B97B984B195B1A7
:1000B0000895369A089595B3282F207F9F70922B2C
:1000C00095BBA898A99A0000A99832E43A95F1F74F
:1000D00000C025B330E1839FC0011124922F9F708F
:1000E000892B85BBA99A0000A99883EF91E001971D
:1000F000F1F700C00000089595B3282F207F9F706E
:10010000922B95BBA89AA99A0000A99832E43A9537
:10011000F1F700C025B330E1839FC0011124922F75
:100120009F70892B85BBA99A0000A99883EF91E065
:100130000197F1F700C0000008958FEF84BB87E8B6
:1001400093E10197F1F700C0000082E00E945B009C
:1001500088E20E945B008CE00E945B0086E00E94C7
:100160005B0081E00E945B0083EF91E00197F1F773
:1001700000C000000895CF93DF93EC0188818823AD
:1001800031F021960E947C0089918111FBCFDF9193
:10019000CF91089581E00E945B0083EF91E0019789
:1001A000F1F700C0000080E80E945B0008958130F4
:1001B00049F028F0823049F0833051F00BC090E8CC
:1001C000960F08C090EC960F05C090E9960F02C0FC
:1001D00090ED960F892F0E945B0008951ABA8FEF59
:1001E00084BB15BA0E949D0078940E9449000E9429
:1001F0005900FDCF1F920F920FB60F9211242F932B
:100200003F934F935F936F937F938F939F93AF939E
:10021000BF93EF93FF9381E00E945200909375008B
:10022000809374009C01220F331F220F331F820F13
:10023000931F6FEF73E00E945C0128EE33E0629F32
:10024000C001639F900D729F900D112490937300D5
:10025000809372004AE050E066E770E00E948401FB
:1002600080E690E00E94BB0060E081E00E94D70041
:1002700086E790E00E94BB008EE690E00E94BB0003
:100280002FE38DE093E0215080409040E1F700C0E3
:1002900000000E94CA00FF91EF91BF91AF919F9122
:1002A0008F917F916F915F914F913F912F910F901F
:1002B0000FBE0F901F90189597FB072E16F4009411
:1002C00007D077FD09D00E94700107FC05D03EF4ED
:1002D000909581959F4F0895709561957F4F0895F2
:1002E000AA1BBB1B51E107C0AA1FBB1FA617B7075C
:1002F00010F0A61BB70B881F991F5A95A9F7809578
:100300009095BC01CD0108954532510520F442304D
:1003100010F00C948F01FB011082CB010895BB27D4
:100320004A3031F4992322F4BDE2909581959F4F94
:100330000C949B01BB27FB015527AA27880F991F07
:10034000AA1FA41710F0A41B83955051B9F7A05D04
:10035000AA3308F0A95DA193009779F7B111B19381
:100360001192CB010C94B401DC01FC01672F719157
:100370007723E1F7329704C07C916D93708362918B
:0C038000AE17BF07C8F30895F894FFCF34
:10038C0054686520566F6C742069733D20006D763F
:02039C0000005F
:00000001FF
