:100000000C942A000C9447000C9447000C94470071
:100010000C9447000C9447000C9447000C94470044
:100020000C9447000C9447000C9447000C94470034
:100030000C9447000C9447000C9447000C94470024
:100040000C9447000C9447000C9447000C94470014
:100050000C94470011241FBECFE5D8E0DEBFCDBF12
:1000600010E0A0E6B0E0E8E4F4E002C005900D92F4
:10007000A43BB107D9F720E0A4EBB0E001C01D928A
:10008000A73BB207E1F70E9452010C9422020C94A4
:100090000000CF92DF92FF920F931F93CF93DF93D5
:1000A000CDB7DEB760970FB6F894DEBF0FBECDBFF9
:1000B00080EF8ABB40E050E0FF24FA946894CC249F
:1000C000C4F8D12CB0E0A0E08BB3FBBA2BB38A010B
:1000D000C601042E02C0880F991F0A94E2F780958A
:1000E00082238BBB8B2F9A2F29B3BC0130E0082EC3
:1000F00002C0359527950A94E2F720FD33C0EBE462
:10010000FDE13197F1F700C0000029B330E0082E7F
:1001100002C0359527950A94E2F720FD23C080E1BF
:10012000E0E6F0E0DE01119601900D928A95E1F78C
:1001300021E030E0062E02C0220F331F0A94E2F7BE
:1001400089B390E082239323892BD1F3FB01EE0F37
:10015000FF1FEE0FFF1F0E0F1F1FFE01E00FF11F0D
:1001600081810CC001968430910509F0BDCF4F5FAD
:100170005F4F4430510509F0A7CF81E060960FB67C
:10018000F894DEBF0FBECDBFDF91CF911F910F91CD
:10019000FF90DF90CF90089598B3282F207F9F7015
:1001A000922B98BBC198C29A0000C29832E43A954B
:1001B000F1F700C028B330E1839FC0011124922FD2
:1001C0009F70892B88BBC29A0000C29883EF91E090
:1001D0000197F1F700C00000089598B3282F207F01
:1001E0009F70922B98BBC19AC29A0000C29832E4C9
:1001F0003A95F1F700C028B330E1839FC001112484
:10020000922F9F70892B88BBC29A0000C29883EFFF
:1002100091E00197F1F700C0000008958FEF87BBD0
:1002200087E893E10197F1F700C0000082E00E94A7
:10023000CC0088E20E94CC008CE00E94CC0086E0DA
:100240000E94CC0081E00E94CC0083EF91E00197F6
:10025000F1F700C000000895CF93DF93EC0188818F
:10026000882331F021960E94ED0089918111FBCF06
:10027000DF91CF910895813049F028F0823049F024
:10028000833051F00BC090E8960F08C090EC960FA9
:1002900005C090E9960F02C090ED960F892F0E943D
:1002A000CC0008958FEF84BB81BB15BA12BA0E94AF
:1002B000D7010E940E0180E790E00E942C0160E0CF
:1002C00081E00E943B0181E890E00E942C0160E007
:1002D00082E00E943B0182E990E00E942C0160E0F4
:1002E00083E00E943B0183EA90E00E942C010E947F
:1002F00049008093B600813051F582B78823B9F365
:1003000012BE8091B5008F5F8093B50082BB809153
:10031000B5000E94DC018091B5008C3341F78091DB
:10032000B4008F5F8093B40085BB1092B50012BA01
:100330008091B4000E94FF018091B4008C33B9F623
:100340001092B40015BA1092B50012BAD0CF8B3209
:1003500061F413BE8091B5008F5F8093B50082BBBE
:100360008091B5000E94DC01C2CF8D3261F413BED2
:100370008091B4008F5F8093B40085BB8091B400FE
:100380000E94FF01B4CF833451F412BE1092B50025
:100390001092B40012BA8091B40085BBA8CF8D33FF
:1003A00009F0A5CFB89883B7876083BFA0CFB8986E
:1003B00083B7876083BF089596EF980F9A3018F43B
:1003C00092B39A5F92BB9CEE980F9A3018F492B356
:1003D000945F92BB92EE980F9A3018F492B39E5E9F
:1003E00092BB98ED980F9A3018F492B3985E92BB36
:1003F00082538A3018F482B3825E82BB089596EFEE
:10040000980F9A3018F495B39A5F95BB9CEE980FAD
:100410009A3018F495B3945F95BB92EE980F9A308A
:1004200018F495B39E5E95BB98ED980F9A3018F42A
:1004300095B3985E95BB82538A3018F485B3825E7B
:0804400085BB0895F894FFCF7D
:100448003738392F3435362A3132332D43303D2B66
:10045800272B27544F2041646A7573742073656392
:1004680000272D27544F2041646A757374204D6905
:100478006E00274F4E27546F2052657365742043D2
:100488006C6B00273D27544F20526573756D6520AE
:04049800436C6B0046
:00000001FF
